:020000040800F2
:1000000028040020190D0008E10C0008E30C00088A
:10001000E50C0008E70C0008E90C000800000000EF
:10002000000000000000000000000000EB0C0008D1
:10003000ED0C000800000000EF0C0008F10C0008B7
:10004000350D0008390D00083D0D0008410D000870
:10005000450D0008490D00084D0D0008510D000820
:10006000550D0008590D00085D0D0008610D0008D0
:10007000650D0008690D00086D0D0008710D000880
:10008000750D0008790D00087D0D0008810D000830
:10009000850D0008890D00088D0D0008910D0008E0
:1000A000950D0008E5070008990D00089D0D000852
:1000B000FF07000803080008A10D0008A50D0008AF
:1000C000A90D0008AD0D0008B10D0008B50D000820
:1000D000B90D0008BD0D000843080008C10D000857
:1000E000C50D0008C90D0008CD0D0008D10D000890
:1000F000D50D0008D90D0008DD0D0008E10D000840
:10010000E50D0008E90D0008ED0D0008F10D0008EF
:10011000F50D0008F90D0008FD0D0008010E00089E
:10012000050E0008090E00080D0E0008110E00084B
:10013000150E00080000000000000000190E000865
:100140001D0E0008210E0008250E0008290E0008CB
:100150002D0E0008310E0008350E0008390E00087B
:100160003D0E0008410E0008450E0008490E00082B
:100170004D0E0008510E00080000000000000000B5
:10018000550E00082DE9FC47040016D02078DFF852
:100190001C64C10713D5B06800F00C00042807D018
:1001A000B06800F00C00082842D1706841023FD5C9
:1001B0003068810303D56068002800F03D81207815
:1001C000DFF8F493810719D5B06810F00C0F07D051
:1001D000B06800F00C00082846D17068410243D492
:1001E0003068810703D5E068012840F02581316837
:1001F000206921F0F80141EAC00131602078DFF880
:10020000BC83010765D56069DFF8B413002852D0BC
:1002100001220A6000F0E4F90546D8F804008107DD
:1002200057D400F0DDF9401B0228F6D9032006E17F
:100230006168B170606858B100F0D2F90546306865
:100240008103BCD400F0CCF9401B6528F7D3EDE75F
:1002500000F0C6F9054630688103B0D500F0C0F95A
:10026000401B6528F7D3E1E7E068B0B10121C9F888
:10027000001000F0B5F905463068810705D400F09C
:10028000AFF9401B0228F7D9D0E73068216920F088
:10029000F80040EAC1003060B0E7C9F8000000F0A3
:1002A0009FF9054631688807A8D500F099F9401BE9
:1002B0000228F7D9BAE7086000F092F90546D8F8A5
:1002C0000400810705D500F08BF9401B0228F6D900
:1002D000ACE72078410750D5306C0025C1000AD426
:1002E00000950125316C41F080513164306C00F093
:1002F000805000900098DFF8CC72386840F480702D
:1003000038603968C80510D4396841F480713960A3
:1003100000F066F982463868C10506D400F060F93D
:10032000A0EB0A000228F6D980E7A16888F800103F
:1003300041F28937A06868B100F052F98246D8F8D6
:100340000000810714D400F04BF9A0EB0A00B8427A
:10035000F5D36BE700F044F98246D8F80000810736
:1003600006D500F03DF9A0EB0A00B842F5D35DE7F1
:100370001DB1306C20F080503064A06900285DD041
:10038000B16801F00C0108293AD002282CD100F004
:1003900058F805463068810105D500F021F9401B69
:1003A0006528F7D342E77068DFF81C12E26908405D
:1003B000216A1043626A0843E16A40EA8210A26A35
:1003C000520840EA0160521E40EA0240706001207B
:1003D00000F038F80446306881012FD400F000F9AD
:1003E000001B6528F7D321E700F02BF8044630689E
:1003F000810123D500F0F4F8001B6528F7D315E739
:10040000012819D07068E26900F48001914202BFAE
:1004100000F03F01226A91420ED1626AC0F3881156
:10042000914202BF00F44031A26A914202BF00F043
:100430007060E16A884201D0012000E00020BDE840
:10044000F6870020C9F8600000F0CAB82DE9F04135
:1004500004000F4651D05D4E306800F00F00B842E6
:1004600002D200F06EF848D12068504D810712D5B5
:10047000400703D5A96841F4E051A960207801073D
:1004800003D5A86840F46040A860A968A06821F07E
:10049000F0010143A9602178C80726D560680128CA
:1004A00002D129688A0303E00228296802D18A015F
:1004B00002D422E08A0720D5A968890840EA810091
:1004C000A86000F08DF88046A868616800F00C0014
:1004D000B0EB810F09D000F083F8A0EB080041F2E7
:1004E00089318842F0D3032029E0306800F00F0002
:1004F000874204D200F025F801D001201FE02078C7
:10050000410705D5AA68E06822F4E0520243AA60D8
:100510002178080706D5A968206921F4604141EADD
:10052000C001A96000F017F8AA682949204BC2F35E
:100530000312895CC840186000F009F80020BDE88B
:10054000F0813770316801F00F01B94270472148DE
:10055000006800F04BB830B51F4C606800F00C002C
:10056000042802D0082802D01DE01C4830BD2268B3
:1005700020680023410202F03F0204D52568174994
:10058000C5F3881003E020680A49C0F38810A1FB76
:10059000000100F04BF82168C1F30141491C4900FA
:1005A000B0FBF1F030BD034830BD00000038024020
:1005B0000C0000200024F400000047427038024084
:1005C000800E4742007000400080BCF0003C0240BA
:1005D000080D0008080000200438024040787D0122
:1005E00001484068704700BF0000002038B50D4D3D
:1005F0000D4B2A7804464FF47A711868B1FBF2F279
:10060000B0FBF2F000F0CDF850B9102C08D2002267
:1006100021464FF0FF3000F0A7F8AC60002032BD5B
:10062000012032BD000000200C000020D3BBD9B156
:10063000B2F5803F5BD2022A1ED98C46B1FBF2F1A3
:1006400002FB11C31B0443EA1043B3FBF2FC02FBA1
:100650001C3380B240EA0343B3FBF2F002FB1032DA
:1006600040EA0C4000237047022A05D98446B0FBBB
:10067000F2F002FB10C270474AB105D100F001024E
:1006800049085FEA3000704700220023704700F0FD
:10069000A7B80B000200002100207047F7D300220A
:1006A00000237047904271EB030CF2D370B5B1FA9E
:1006B00081F4B3FA83F52C1BA340C4F1200532FA70
:1006C00005F63343A2405FF00046E64002E05B08D7
:1006D0005FEA3202841A71EB030524BF20462946E3
:1006E0007641F4D302000B003000002170BD70B5DC
:1006F000B1FA81F4B2FA82F5C4F120046419B4F1BC
:100700002006DAD3B2405FF00044F440002502E056
:1007100052085FEA3303C61A71EB020E24BF30465B
:10072000714664416D41F3D302000B0020002900A3
:1007300070BD00000901020002D4244881547047B2
:10074000234B02F00F021A4402F8041C7047214B9D
:1007500019684FF6FF020002114000F4E060084300
:100760001D4908431860704770B51A4B1C68C4F3E4
:1007700002230124C3F10705052D2EBF0F2504FA1E
:1007800005F56D1E1E1D072E34BF0023DB1E2940FC
:10079000994004FA03F3BDE870405B1E1A40114310
:1007A000C8E710B5401EB0F1807F01D3012010BD15
:1007B0000A4C60600F214FF0FF30FFF7BBFF0021B4
:1007C000A16007202060002010BD000000E400E0D0
:1007D00018ED00E00CED00E00000FA0510E000E08C
:1007E000704700003F4801684908490001603E48E1
:1007F0000168491C142908BF0021016070473B486B
:100800001AE03B488178012902D1C178491CC170A6
:10081000C17832290FD100224270017942794172A8
:1008200082728179C279C17202730022017A4173A6
:100830004280426002722F48016849084900016005
:1008400070472D4801688A0616D5294901238B7007
:1008500042680A700A780A2A08D04B780B441A7149
:100860004A78521C4A70D2B2042A01DD00224A7032
:10087000016821F020010160704738B500F048F8A8
:1008800000F086F800F05EF81C4C0022072120469C
:1008900000F0A8F80022022119481A4D00F0A2F831
:1008A00000F0CAF800F0E1F800F0FEF800F01CF9E2
:1008B00001220B21144800F095F801220621284658
:1008C00000F090F801220721284600F08BF8012261
:1008D0000E210E4800F086F801220F21204600F07C
:1008E00081F8FEE7100001401000002010000040D9
:1008F00014000020100400400044004000000240AA
:100900000004024000080240000C024000100240B7
:1009100080B50B48016841F400710160026842F43F
:1009200080620260016841F4807101600320FFF77A
:100930000EFF0F20FFF75AFE00F01CF9002002BD49
:10094000003C02402648016841F001010160026854
:1009500042F002020260016841F004010160026895
:1009600042F008020260016841F010010160426932
:1009700042F001024261016941F001010161016936
:1009800041F002010161016941F4003101617047E8
:1009900000B5134891B0016841F0010101603022B7
:1009A000002105A800F002F914220021684600F099
:1009B000FDF80221012205910892102100220991DF
:1009C0000B9205A8FFF7DEFB0F200090002101919C
:1009D0000291039104916846FFF738FD11B000BD04
:1009E0003038024070B54B0001245B1C490004FA0A
:1009F00003F38C40DB43E143012A0CD10268114030
:100A00000160016819400160C5682C43C460C16879
:100A10000B40C36070BD72B9026822430260056872
:100A20001D4005608668344384608268134083609B
:100A300043681940416070BD2848016821F01001E9
:100A400001600021026822F060020260416210220F
:100A5000826240F2E731C162C268214942F001027C
:100A6000C2600A6842F0007218E04FF080400168EE
:100A700021F0100101600021026822F06002026092
:100A800041621022826240F2E731C162C2681449B9
:100A900042F00102C2600A6842F080520A600168B6
:100AA00041F00101016070470E48016821F010011A
:100AB00001600021026822F060020260416210229F
:100AC000826240F2E731C162C268054942F0010228
:100AD000C2600A6842F00052E0E7000000000140F6
:100AE00000E100E0000400401F48016A41F4E061B9
:100AF0000162016A41F4E0410162026822F0F00201
:100B00000260016841F0A0010160426822F00C021D
:100B1000426040F28362C16821F0F001C160134875
:100B2000416821F4005141600260416821F4805124
:100B30004160816821F440518160416821F4C061C5
:100B40004160C16821F00801C160416841F02C0199
:100B50004160416841F4005141600548016841F03D
:100B6000400101607047000000000240084400405E
:100B700004E100E081B00020009000220A484168B2
:100B800041F480414160416801F480410091009945
:100B90000092036843F080530360006800F08050C7
:100BA0000090009801B070474038024010B50446EC
:100BB00010460A460146204600F002F8204610BDC5
:100BC00062F30F2262F31F42401810F0030308D0B3
:100BD000C91A1FD3DB0748BF00F8012D28BF20F832
:100BE000022D130030B414461546103928BF20E9F1
:100BF0003C00FAD8490728BF20E90C0048BF40F85C
:100C0000042D890028BF20F8022D48BF00F8012DCF
:100C100030BC7047C91818BF00F8012DCB0728BF9A
:100C200000F8012D704730B50168846842184168AA
:100C300002EB5103C90703D54C4401E0491C05D11F
:100C40009A420AD012F9011B12F8015B002904F83C
:100C5000015BF3D4491EF7D5F2E70C3030BD00003C
:100C600010B5074979441831064C7C44163404E029
:100C70000A68081D114488470146A142F8D110BDF9
:100C800008000000140000009FFFFFFFCC010000DF
:100C90001A0000000000002000F00DF8002801D02C
:100CA000FFF7DEFFAFF300800020AFF30080FFF717
:100CB000E4FD00F002F80120704700F001B80000E8
:100CC0000746384600F002F8FBE7000080B5AFF3B6
:100CD0000080024A11001820ABBEFBE7260002008C
:100CE000FEE7FEE7FEE7FEE7FEE770477047704766
:100CF00000F000B802494A68087882184A607047D4
:100D0000000000207047000000000000000000000C
:100D1000010203040607080901488047014800470B
:100D2000050D0008290D0008AFF30080AFF3008027
:100D3000FFF7B2FFFFF7FEBFFFF7FEBFFFF7FEBFF3
:100D4000FFF7FEBFFFF7FEBFFFF7FEBFFFF7FEBFD7
:100D5000FFF7FEBFFFF7FEBFFFF7FEBFFFF7FEBFC7
:100D6000FFF7FEBFFFF7FEBFFFF7FEBFFFF7FEBFB7
:100D7000FFF7FEBFFFF7FEBFFFF7FEBFFFF7FEBFA7
:100D8000FFF7FEBFFFF7FEBFFFF7FEBFFFF7FEBF97
:100D9000FFF7FEBFFFF7FEBFFFF7FEBFFFF7FEBF87
:100DA000FFF7FEBFFFF7FEBFFFF7FEBFFFF7FEBF77
:100DB000FFF7FEBFFFF7FEBFFFF7FEBFFFF7FEBF67
:100DC000FFF7FEBFFFF7FEBFFFF7FEBFFFF7FEBF57
:100DD000FFF7FEBFFFF7FEBFFFF7FEBFFFF7FEBF47
:100DE000FFF7FEBFFFF7FEBFFFF7FEBFFFF7FEBF37
:100DF000FFF7FEBFFFF7FEBFFFF7FEBFFFF7FEBF27
:100E0000FFF7FEBFFFF7FEBFFFF7FEBFFFF7FEBF16
:100E1000FFF7FEBFFFF7FEBFFFF7FEBFFFF7FEBF06
:100E2000FFF7FEBFFFF7FEBFFFF7FEBFFFF7FEBFF6
:100E3000FFF7FEBFFFF7FEBFFFF7FEBFFFF7FEBFE6
:100E4000FFF7FEBFFFF7FEBFFFF7FEBFFFF7FEBFD6
:100E5000FFF7FEBFFFF7FEBF0001F9000010FC0026
:050E60000124F4EB0089
:0400000508000D29B9
:00000001FF
