:020000040800F2
:10000000C80400204D2B0008132B0008152B0008F6
:10001000172B0008192B00081B2B000800000000FC
:100020000000000000000000000000001D2B000880
:100030001F2B000800000000212B0008232B0008C4
:10004000692B00086D2B0008712B0008752B000828
:10005000792B00087D2B0008812B0008852B0008D8
:10006000892B00088D2B0008912B0008952B000888
:10007000992B00089D2B0008A12B0008A52B000838
:10008000A92B0008AD2B0008B12B0008B52B0008E8
:10009000B92B0008BD2B0008C12B0008C52B000898
:1000A000C92B0008F9230008CD2B0008D12B00082C
:1000B00069240008D52B0008D92B0008DD2B000887
:1000C000E12B0008E52B0008E92B0008ED2B0008C8
:1000D000F12B0008F52B0008AB240008F92B0008D1
:1000E000FD2B0008012C0008052C0008092C000835
:1000F0000D2C0008112C0008152C0008192C0008E4
:100100001D2C0008212C0008252C0008292C000893
:100110002D2C0008312C0008352C0008392C000843
:100120003D2C0008412C0008452C0008492C0008F3
:100130004D2C00080000000000000000512C0008B9
:10014000552C0008592C00085D2C0008612C000873
:10015000652C0008692C00086D2C0008712C000823
:10016000752C0008792C00087D2C0008812C0008D3
:10017000852C0008892C0008000000000000000009
:100180008D2C00082DE9F14FB2B09946924600231C
:100190000691CDE900333C9A0F930DF14A01149179
:1001A0004A7011E0329E57462C4617F8011B0698FC
:1001B000B0470028069000F026810F98401C641E6E
:1001C0000F90F2D13296AA449AF80000252808D15F
:1001D0000021002209910A920B910C920D910E922E
:1001E0000FE06A464FF0FF31504601F071F805000C
:1001F00002D10F9800F066BED4D50125E3E741F0A7
:1002000001011AF8010F2028F9D023280CD02B283F
:1002100004D02D2805D0302809D00BE041F0020190
:10022000EFE741F00401ECE741F00801E9E741F0B4
:100230001001E6E72A280FD1D9F8002052F8040B64
:10024000C9F800200028119003D54042119041F0D8
:1002500004010AF1010A14E01192DFF8EC3B0AE014
:100260001198984205DA00EB800402EB4402303A20
:1002700011920AF1010A9AF80020A2F130000A282E
:10028000EED39AF800002E2803D04FF0FF321092E0
:1002900029E01AF8010F2A2809D1D9F8000050F8EE
:1002A000042BC9F8000010920AF1010A1BE02D2866
:1002B0000CBF0AF1010A002000221092DFF8882BFF
:1002C0000BE040B9109B934205DA03EB830504EB86
:1002D0004504303C10940AF1010A9AF80040A4F158
:1002E00030030A2BEDD3ADF848100FF660309AF8C2
:1002F000001000F0F7FF08B11AF8010B8DF84A0062
:100300009DF84A00682805D19AF8000068280CD1A9
:10031000622106E06C2804BF9AF800006C2804D122
:1003200071218DF84A100AF1010A1FA808901AF8E5
:1003300001BBBBF125012DD01C3900F06181091FE3
:10034000022940F25D810E392AD0491F00F0B384A2
:10035000093900F05581891E00F04985491E00F0D9
:10036000F584491E022940F24B81091F00F0EE84FA
:10037000491F00F0BA80491E00F09D84491E65D0D7
:10038000C91E21D0891E00F09684C91E00F09384F6
:1003900000F04CBD25238DF87C30012109912AE025
:1003A0006C208DF84A00D9F8000050F8042BC9F8E9
:1003B0000000002A43D11499487800283DD04FF01E
:1003C000FF340FF6902012E09DF84A006C28EAD026
:1003D000D9F8000050F8044BC9F800000794D4B9CC
:1003E0001499487898B14FF0FF340FF6842000F04C
:1003F00091FF201A07D132981FAA04A900F065FDC9
:1004000000287FF5E1AE4FF0FF3000F05BBD0FF646
:100410007C200790EFE7109D002D04D5204600F0CA
:1004200099FF044607E02A46204600F0AFFF002867
:1004300014BF041B2C460A94DDE70FF654223298B1
:1004400004A900F0C8FD0028D5D5DCE7D9F80010D4
:1004500051F8040BC9F8001020F00004002121F02D
:10046000FF351FABCDE904450793DDE90423089967
:100470003C2413B90AB9109898B102F00F05303531
:10048000641EEEB23A2EA8BF2735120942EA037263
:100490001B090D5508BF002A03D007980D19A84263
:1004A000EBD308190790C4F13C0210980A928242DB
:1004B00009DABDF84810821A4FF6EF7001400C922D
:1004C000ADF8481097E7002895D59DF8480000F052
:1004D000140010288FD1119B09990C985B1A1B1AD4
:1004E0009A1A002A87DD0C9285E71499487820B182
:1004F0004FF0FF340FF69C1079E79DF84A00622810
:1005000062D0682819D06A2840D06C2806D071289B
:100510004DD074282DD07A281ED064E0D9F8001070
:1005200051F8040BC9F8001020B94FF0FF340FF652
:100530007C105CE70F9901605DE7D9F8001051F875
:10054000040BC9F8001020B94FF0FF340FF65C100F
:100550004DE70F9901804EE7D9F8001051F8040BD0
:10056000C9F800100028E5D14FF0FF340FF63C1019
:100570003DE7D9F8001051F8040BC9F80010002825
:10058000D8D14FF0FF340FF6241030E7D9F800101F
:1005900051F8040BC9F8001020B94FF0FF340FF6E2
:1005A0000C1024E70F9AD317C0E9002323E7D9F8EA
:1005B000001051F8040BC9F800100028F2D14FF0D8
:1005C000FF340FF6E80012E7D9F8001051F8040BD9
:1005D000C9F8001020B94FF0FF340FF6D00006E73D
:1005E0000F99017007E7D9F8001051F8040BC9F80A
:1005F000001000289ED14FF0FF340FF6B000F6E651
:10060000D9F80020D21D22F00702C9F80020D2E953
:1006100000010832C9F80020CDE90401C80F02D05A
:1006200009982D210AE0BDF84800810702D50998F4
:100630002B2103E0C00705D5099820211FAA1154DA
:10064000401C0990DDE9042309991FA8CDE92E2358
:1006500008444BF020016129079015AC0BD010998C
:10066000002902D50621109105E001BF4BF02001C1
:10067000672901221092DDE9042359004915491C1C
:1006800010D11A030ED0ABF1610503211A2D0A9186
:1006900002D20FF6A43101E00FF6A031032200F0E0
:1006A000A1FEA8E659004915491C0AD11A0308D130
:1006B000ABF1610503211A2D0A9116D30FF684318F
:1006C000ECE7DDE90401CDE93001DDE9302323F079
:1006D0000047B7F5801F22F000060DD20022002F40
:1006E00008BF002E029203D116E00FF65431D5E771
:1006F00002AA00F0CBFE0FE0DFF8EC0ADFF8EC1AFC
:1007000000EB17500290DDE930234FF0FF30194025
:10071000DFF8DC7A10403943CDE904014BF02000CA
:1007200061280DD1079830210170821CBBF1610F47
:1007300007920CBF7821582141700998801C0990BC
:10074000DDE9040120F0000231F0004308BF002A77
:1007500002D10026002571E14BF02008B8F1610FAD
:1007600040F0BE801098002847BF21210391401C13
:100770000390039FDDE92E017F1C00220023DDE9A9
:10078000044500F0BBFE02998DF8542038BF85F077
:100790000045091F002F02910DF155065DDDDFF8C0
:1007A000541ACDE9302140F2FF732E93204629469A
:1007B0000022002300F0BAFE4FD24800400D00F1A5
:1007C0001C0215D0002A13DD2E9B9A420ADBDDE9BC
:1007D000300121F0004205F000400243DDE9300124
:1007E000114611E06FF31E5141EA025120460BE021
:1007F00024F0000035F0004108BF00280FBF294653
:100800001C22294600F0AAFE04460D4600F044FFD3
:10081000FF1F002F804609DD00F05CFF02460B46FB
:100820002046294600F068FF04460D46F01D0721CA
:10083000B8F1000F0CDD491E5EBF08F00F0200F892
:10084000012D4FEA2818F3D502E0002200F8012D0F
:10085000491EFAD5C61D002FA8DC0DF15500361A29
:1008600003988642D8BF304600280DF1550430D495
:10087000B04206DA0DF155010A5C082AA8BF0F2123
:1008800000DA0021024615AB134400E0401E13F8C5
:100890000159521E8D42F9D00F2904D10DF1550195
:1008A0008B5C5B1C8B54002A04D50299091D15AC86
:1008B000401C0291411E0CD46218ABF13A06137829
:1008C0003033DDB23A2DA8BFF318491E02F80139C2
:1008D000F5D51099002940F1AF80421E1092ABE08F
:1008E0000299DFF8142947F29750414391FBF2F245
:1008F000DDE92E45029225F00045D2F1070204DD24
:100900002046294600F04CFC0BE052420020DFF864
:10091000EC1800F045FC02460B462046294600F044
:100920005DFF0446B8F1660F109806BF029F0A37B4
:1009300006273F18142FC8BF142730208DF8540005
:100940000D460020DFF8B818CDE92E010DF155064F
:10095000002F33DD2046294601F064F801460A469F
:1009600006F1080304200A26B2FBF6F606EB860E13
:10097000A2EB4E02303203F8012C0A22B6FBF2F24F
:1009800002EB820EA6EB4E063036401E03F8026DD7
:10099000E9D1083F002F03F10806D9DD084601F030
:1009A00055F802460B462046294600F0A5FEDDE933
:1009B0002E2301F059F804460D46CBE70DF1550002
:1009C000361A0DF1550404E00298401E761E02907E
:1009D000641C20783028F7D0B8F1660F02D1029954
:1009E000491C04E0B8F1650F0CBF012100211098EB
:1009F00008188642B8BF701E00281DD4B04204DA21
:100A0000215C3429C8BF392100DC30210246631E35
:100A10009D1800E0401E15F80169521E8E42F9D063
:100A2000392902D1A15C491CA154002A04D502999C
:100A3000491C1C46401C02910646029D00F04CFCDD
:100A4000406A0778DDF8408030B2002802DC0126D9
:100A50000FF2F4744BF02000662808BF6D1C16D00E
:100A6000672846D128B210F1040F48DB404546DA2A
:100A70009DF848006D1C010703D430B24045B8BF53
:100A8000804628B2B8EB000848BF4FF000080FFAC4
:100A900085FB07980A99BBF1000F00F3B2804A1C4E
:100AA0000A9230234354B8F1000F03DC9DF848004C
:100AB000010704D50A98411C0A9107990F5418EBB5
:100AC0000B0FB8BFC8F100052DB268420D90A844C5
:100AD00032B29045B8BF4646079B0A9836B20B968D
:100AE00032462146184400F07DFCA8EB06000E902B
:100AF000CBE0BBF1610F17D14FF0700B19E030B2B2
:100B0000404504DA9DF848100A0758BF8046B8F1FE
:100B1000010848BF4FF00008BBF1670F14BF4FF04A
:100B2000450B4FF0650B04E0BBF1410F08BF4FF0E0
:100B3000500B0A98411C0A91B8F1000F079914F85C
:100B4000012B0A5403DC9DF8480001071AD50A98C6
:100B5000411C0A91B8F1000F07990F5412DD761E5F
:100B600030B2804507980A9BB8BF464632B221464C
:100B7000184400F037FC0A9936B271180A91A8EBB4
:100B800006000D9007980A9908442AB2002A80F8B6
:100B900000B003D42B224270811C04E02D2141704F
:100BA0001546811C6D4200202EAA0A2409E02B461E
:100BB00093FBF4F505EB8506A3EB460302F8013B36
:100BC000401C2DB2002DF2DC012806DC4BF0200287
:100BD000652A04BF302201F8012B00282EAA08D173
:100BE000302001F8010B06E0401E135C303301F8A1
:100BF000013B0028F8DC079A0A981044091A0B9167
:100C000043E0084431B22AB2914219DA32B22146A5
:100C100000F0E8FB0A9936B27118ABEB0606B8F1A2
:100C2000000F0A910D9603DC9DF84800020704D5D9
:100C3000079847540B99491C0B91CDF8388024E054
:100C4000214600F0CFFB0A98761B5844B8F1000FFC
:100C50000A9003DC9DF848100A0703D5411C0A914D
:100C600007990F5430B2804507980A9BB8BF464693
:100C700032B204EB0B01184400F0B4FB0A9836B210
:100C800030180A90A8EB06000D909DF8480000F07F
:100C9000140010287FF4AFAB099A0A990D988A18AE
:100CA0000B9982180E988A18821811988242BFF602
:100CB000A2AB821A17E49DF84A00622808D068287F
:100CC0000ED06A2814D06C281FD0712810D01CE0D8
:100CD000D9F8001051F8040BC9F80010C0B21AE09E
:100CE000D9F8001051F8040BC9F8001080B212E0D6
:100CF000D9F80020D21D22F00702C9F80020D2E95D
:100D000000010832C9F8002006E0D9F8001051F8B7
:100D1000040BC9F800100021CDE904019DF848003A
:100D200001075AD5DDE90423002B08BF002A54D05F
:100D30004BF02000782850D109981FA930220A547E
:100D4000401C431C099301F800B046E09DF84A009E
:100D5000622808D068280ED06A2814D06C281FD0CA
:100D6000712810D01CE0D9F8001051F8040BC9F814
:100D7000001040B21AE0D9F8001051F8040BC9F87D
:100D8000001000B212E0D9F80020D21D22F00702B4
:100D9000C9F80020D2E900010832C9F8002006E0B5
:100DA000D9F8001051F8040BC9F80010C117CDE9AB
:100DB0000401002902D509982D210AE0BDF8480058
:100DC000810702D509982B2103E0C00705D50998B2
:100DD00020211FAA1154401C09901FA80999014401
:100DE000079104A8594600F056F9FFF704BB9DF897
:100DF0004A006C280BD001210991D9F8000050F865
:100E0000041BC9F800008DF87C10FFF7F4BAD9F87C
:100E1000000050F8041BC9F8000015914FF0FF3294
:100E200010920021169115AAFFF709BB2521012276
:100E3000BBF1000F8DF87C1009923FF4DCAA8DF80D
:100E40007DB00221FFF7AABACBCCCC0C686A6C74D7
:100E50007A4C00007072696E74665F733A2062614A
:100E60006420256C7320617267756D656E74000077
:100E70007072696E74665F733A20626164202573D4
:100E800020617267756D656E7400000000000000DF
:100E9000000000007072696E74665F733A20256E00
:100EA00020646973616C6C6F776564007072696E41
:100EB00074663A2062616420256E20617267756DE8
:100EC000656E740033B0BDE8F08F2DE9FC410F462C
:100ED000064690467A6B7869396ABC6A121AB86914
:100EE000521A796A121AF869521A121A97F83800C7
:100EF000141B41070FD42020002C8DF800000ADDC0
:100F0000254601236A463946304600F07DF900281F
:100F10005DD16D1EF5D17B6942463946304600F001
:100F200073F9002853D130208DF800003D6A002D60
:100F300009DD01236A463946304600F065F900288C
:100F400045D16D1EF5D1BB69FA683946304600F0CF
:100F50005BF900283BD130208DF800007D6A002D20
:100F600008DD01236A463946304600F04DF970BB72
:100F70006D1EF6D1F868B969FB69421839463046EA
:100F800000F042F918BB30208DF80000BD6A002D3A
:100F900008DD01236A463946304600F035F9B0B91C
:100FA0006D1EF6D197F8380041070DD52020002C92
:100FB0008DF8000008DD01236A463946304600F00E
:100FC00023F920B9641EF6D10020BDE8F6814FF068
:100FD000FF30BDE8F6812DE9F8470D46A3B02F6B31
:100FE000002F8246904648BF6FF0004700F00DFE8C
:100FF000696B401801AA0021C2E90011812828BFAD
:101000004FF0FF3044D289461EE0A74230DB6869CA
:10101000201881280BD30021696303AA2946504672
:10102000FFF753FF5FEA000922D40020686103AB99
:101030006E6922466946981900F0D4F9A6196E61C6
:1010400058F8040BA0B13F1B002F11DDD8F8001099
:1010500001AA684600F03EF90446002C05D4D8F8F1
:1010600000000028D1D1641ECFD54FF0FF390EE02B
:10107000B9F1000F504604D103AA2946FFF725FF16
:101080008146B9F1000F02D10020686168634846CB
:1010900024B0BDE8F0872DE9FC4307466F293E697F
:1010A00008BF082405D041F02000782814BF0A2486
:1010B00010243C25D7E90023642918BF69299046EC
:1010C000994605D1002B03D5D8F1000869EB4909F1
:1010D000B9F1000F08BFB8F1000F0CD1386B50B94F
:1010E000082C39D197F83800010735D530203B2539
:1010F00086F83B0030E08DF8001040464946224615
:10110000E31700F087FD3032D0B26D1E3A2801950A
:1011100004DB9DF80000A0F151018A187255404689
:1011200049462246E31700F075FD80465FEA010953
:1011300008BFB8F1000F03D0F86871198842DCD3FA
:10114000082C09D197F83800010705D5705D3028C3
:1011500002D06D1E30207055C5F13C02BA61711984
:10116000F960386B824208DA821A3A624FF6EF7001
:10117000398F01403987BDE8F38300280ED597F8F1
:10118000380000F01400102808D17B6B7969386AA8
:101190005B1A1B1A9A1A002AC8BF3A62BDE8F38389
:1011A0002DE9D04306460F4614464FF00008DFF8FD
:1011B000549012E0E00707D542464B463046394688
:1011C00000F052FC06460F464046494642464B4612
:1011D00000F04AFC641080468946002CEAD1304673
:1011E0003946BDE8D083000002FCFFFFFFFF0F80FF
:1011F0000000E03F0000F07FA08601000000F03F0B
:1012000084D7974100002440F8B505460E4617469E
:101210001C4600205CB117F8011BB068A847B060FD
:1012200030B1F06A401CF0620020641EF3D1F2BDC0
:101230004FF0FF30F2BD00006E616E004E414E0077
:10124000696E6600494E46003000B1F5807F02D3DA
:101250004FF0FF3070470170012070470078401E4A
:101260008041C043C00F70471C48704770B453683A
:10127000D41801E05B1C491E042B08DA00291FBFAB
:10128000057804F8015B10F8016B002EF2D1536071
:1012900070BC704738B514461D4661B1FFF7E6FFD4
:1012A00061686A6B204690476FF00102811A02D094
:1012B000491E01D001E003E005E00021616032BD7C
:1012C0006FF0010032BD4FF0FF3032BDDA6B1047D6
:1012D000024BDFE7014BF9E7014870474800002067
:1012E00010000020C9B202788A421AB11CBF10F85F
:1012F000012FF9E718BF002070478268521C8260F6
:10130000426832B10268531C036011704168491E83
:101310004160704780B500B906A005490B681BB154
:1013200022220021984701E000F0F7FC222002BDB4
:10133000B8000020636F6E73747261696E74206808
:10134000616E646C65723A20626164206D657373CE
:101350006167650000F10103810704D010F8011BEB
:10136000820781B1FAD10268A2F10131914311F0F3
:10137000803104BF50F8042FF6E709BAB1FA81F1C1
:1013800000EBD100401CC01A70472E00C9B2830781
:1013900006D0521E22D310F8013B9942F7D11FE02C
:1013A000083A13D302F1040241EA012141EA014162
:1013B00050F8043B121F21BF4B40A3F1013C2CEA23
:1013C000030C1CF0803FF3D0C9B2001F083210F8A4
:1013D000013B521E28BF91EA030FF8D818BF012025
:1013E000401E704762B38B0708D0521E11F8013BB4
:1013F00000F8013B00F024808B07F6D1830740F012
:10140000208000BF103A07D330B4B1E83810103A4A
:10141000A0E83810F9D230BC530724BFB1E8081057
:10142000A0E8081044BF51F8043B40F8043BD20741
:1014300024BF31F8022B20F8022B44BF0B78037035
:101440007047121F17D35B0009D151F8043B20F8F5
:10145000023B1B0C121F20F8023BF6D20BE051F8A6
:10146000043B00F8013B1B0A20F8023B1B0C121F37
:1014700000F8013BF3D238BF121D521E24BF11F8F1
:10148000013B00F8013BF8D87047430010B5144603
:1014900000F002F8226010BDC1F30A5343B14A00C4
:1014A00012F5001F28D2A3F2FE32A1EB02517047C1
:1014B00050EA410C20D001F0004C31EA0C01B1FAA5
:1014C00081F204BFB0FA80F3D2180B3AB2F12003D4
:1014D0002CBF00FA03F1914041EA0C013EBFC2F17A
:1014E000200C20FA0CF319439040524240F2FD3395
:1014F000D21A01EB03517047002270474FF4001CD1
:101500001CEB410F94BF1CEB430F09E041EA030CB5
:1015100050EA4C0C52EA0C0C03D2994208BF90429C
:10152000704714BF8B428242704700004FF4001C8A
:101530001CEB410F94BF1CEB430F09E041EA030C85
:1015400050EA4C0C52EA0C0C03D28B4208BF824288
:10155000704714BF9942904270470000124254D421
:1015600040F2FF7C1CEA11530FD0634531D09B1829
:1015700063453CBF01EB0251704701F0004141EA75
:101580000C510020AFF30080704750EA410320D097
:1015900001F0004C91EA0C011CD0B1FA81F30B3B35
:1015A0009A420DD9D21A994051EA0C01C3F1200C8C
:1015B00020FA0CFC61449840531C40F2FF7CD7E7B2
:1015C000914041EA0C01C2F1200C20FA0CF31943BE
:1015D00090407047B0FA80F31533202BE0D3202AD7
:1015E000EED3203A203B9A4209D9D21A00FA03F1ED
:1015F00041EA0C010020531C40F2FF7CB8E700FADE
:1016000002F141EA0C0100207047524240F2FF7C97
:101610001CEA11530DD06345DBD0B2EB030C3CBF89
:10162000A1EB025170470CF1010221EA035141F490
:10163000801150EA410CCCD001F0004C352A27DC57
:1016400030B481EA0C01B2F1200309DAC2F12003BF
:10165000044601FA03F5D0402843D1409C400CE0F9
:10166000C3F12002450020FA03F418BF44F001043E
:1016700021FA03F091400C43002174F1004550F130
:10168000000051EB0C01244230BC7FF47BAF70476B
:101690006146002076E70000C1F30A5340F2FE32B3
:1016A0009B1A14DDD3F120034FEAE17208DDC90271
:1016B00041EA505141F00040D840801850407047F6
:1016C00003F2E13010B1D24382F0004070470020B5
:1016D00070470000C11768B14840401AB0FA80F264
:1016E0009040D21CC907C2F5846241EA025202EB63
:1016F000D02140057047000070B44FF0004591EADA
:10170000030F40F10D836B40841A71EB030603D283
:10171000001BB141121973414FF4001C1CEB410F27
:1017200034BF7CEB430442E00C0DA4EB1356352E82
:101730004FDC45EAC323DB0A45EAC121C912B6F1F1
:1017400020050DDD63FA05F6EB4086EA030512423B
:1017500018BF45F00105C01851F100010CD213E08B
:1017600062FA06F5F2405540F3415A40B340F34067
:101770005A408018594107D349085FEA30005FEAB0
:10178000350528BF45F0010501F58011420875F1C6
:10179000004250F1000041EB04514E0016F5001FCD
:1017A00070BC38BF70470020090D090570471CEB5D
:1017B000410F10D252EA43060BD0BCEB410F05D8C3
:1017C0000C0DAB43661E342EB6DD02E0AB43801831
:1017D000594170BC704770BC70470000F0B540F2D2
:1017E000FF7581EA030C0CF0004C15EA11541DBF83
:1017F00015EA1357AC42AF42E5E0BC41C1F3130117
:10180000C3F31303801A994143F4801304D2641E76
:101810004000494180185941C90241EA5051B1FB89
:10182000F3F603FB1611A2FB0675D7EBC020A94106
:1018300002D2761E80185941C90241EA5051B1FBCB
:10184000F3FE03FB1E11A2FB0E75D7EBC020A941CE
:1018500003D2AEF1010E80185941890241EA90513C
:10186000760546EA8E2EB1FBF3F603FB1611A2FBBA
:101870000675D7EB8020A94102D2761E8018594107
:10188000C90241EA50514EEA060EB1FBF3F603FBE2
:101890001611A2FB0675D7EBC020A94102D2761E15
:1018A00080185941C90241EA5051B1FBF3F703FBDB
:1018B0001711A2FB0735D3EBC020A94167F1000740
:1018C0000CBF004247F0010766F3D5274FEA1E31EF
:1018D000B80814F5806412DDBD0775F1004250EBC5
:1018E0000E5051EB045111F5801F5CBF41EA0C0111
:1018F000F0BD4CF07F6141F0E0410020F0BDBD073C
:101900006D0840EA0E5041F48011D4F10104B4F1A5
:1019100020060ADAC4F120060200E04001FA06F3CC
:10192000E1401843B24015430EE0342C13DCC6F1FD
:10193000200445EA40056D0820FA06F2154321FA15
:1019400006F0A1400D43002175F1004250F1000066
:1019500051EB0C01F0BD00205FEA0C01F0BDCFB9E6
:1019600092185B41B3FA83F704BFB2FA82F6BF194B
:101970000B3FB7F120062FBF02FA06F3BB40C7F1B9
:10198000200622FA06F638BF3343BA401CB1E419E8
:10199000641E33E77F4231F00041B1FA81F404BFA5
:1019A000B0FA80F6A4190B3CB4F120062FBF00FA60
:1019B00006F1A140C4F1200620FA06F638BF3143F3
:1019C000A0403C1B1AE7AC421ABF05EA1357AF42CE
:1019D00012E050EA41061CBF52EA4306BFE750EA54
:1019E0004107304661461CBF41EA0551F0BD52EA4D
:1019F000430C08BFC143F0BD00204FF4001616EBA6
:101A0000410F98BF16EB430F08BF16EB410F24BFE1
:101A1000C14305E016EB430F0CBF61464CEA05518C
:101A2000F0BD0000400D491840EA81200CD2490D5C
:101A3000A1F58061491C40F0004005DBD1F11F0198
:101A400054BFC840C017704700207047014648B1D6
:101A5000B0FA80F18840C91CC1F58461090501EB29
:101A6000D021400570470000B0B581EA030C0CF0AE
:101A7000004C40F2FF7515EA11541DBF15EA1357CB
:101A8000AC42AF4239E0E41923EA455343F48013F2
:101A9000C90241F0004141EA505EC7021100A7FBB4
:101AA000020200284FF00000EEFB01204FF0000181
:101AB000E3FB072118BF42F0010240180021494111
:101AC000E3FB0E01A4F580640F0302D252004041F3
:101AD000494154F101046CDD470872F1004250F1B4
:101AE000000051EB0451A1F580115CBF41EA0C01EB
:101AF000B0BD4CEA05510020B0BD05EA1357AC4219
:101B000014BFAF4241E050EA410E1CBF52EA430EFF
:101B100002E061460020B0BD24423C441BD15FEA94
:101B2000070EF6D0090302BF01460020AEF1140EE5
:101B3000B1FA81F7AEEB070401FA07FE0C37C7F1E3
:101B4000200100FA07F7C8404EEA000E23EA455389
:101B500043F48013A2E733F00043B3FA83F704BFE2
:101B6000B2FA82FE77440B3FE41BB7F1200E2FBF81
:101B700002FA0EF3BB40C7F1200E22FA0EFE38BF68
:101B800043EA0E03BA40641C82E750EA410E14BFD8
:101B900052EA430E6FF000014FF4001717EB430FAA
:101BA0008ABF194617EB410FB5E74CEA05510020F3
:101BB000B0BDD4F10104B4F120070FDAC4F120075D
:101BC000520828BF42F0010210FA07F501FA07F7A0
:101BD000E1BF2A43E0403843E1400FE0352C98DC78
:101BE000C7F1200452EA400220FA07F218BF42F07F
:101BF000010231FA07F0A1400A43002172F10042CC
:101C000050F1000051EB0C01B0BD80B5FFF72CFB8B
:101C1000006C02BDD3BBD9B1B2F5803F5BD2022AC2
:101C20001ED98C46B1FBF2F102FB11C31B0443EA3F
:101C30001043B3FBF2FC02FB1C3380B240EA0343C7
:101C4000B3FBF2F002FB103240EA0C400023704775
:101C5000022A05D98446B0FBF2F002FB10C270479D
:101C60004AB105D100F0010249085FEA300070472F
:101C700000220023704700F009B90B000200002188
:101C800000207047F7D3002200237047904271EB89
:101C9000030CF2D370B5B1FA81F4B3FA83F52C1BBF
:101CA000A340C4F1200532FA05F63343A2405FF0A9
:101CB0000046E64002E05B085FEA3202841A71EBFC
:101CC000030524BF204629467641F4D302000B00C9
:101CD0003000002170BD70B5B1FA81F4B2FA82F51E
:101CE000C4F120046419B4F12006DAD3B2405FF0E5
:101CF0000044F440002502E052085FEA3303C61AAC
:101D000071EB020E24BF3046714664416D41F3D33E
:101D100002000B002000290070BD012000F0B8B8BF
:101D2000841A71EB030604D26E40001BB1411219F4
:101D300073414FF4001C1CEB410F34BF7CEB430696
:101D400083E00C0DA4EB1356362E00F37C80012E9D
:101D500045EAC32341DC43EA525312BFD202920246
:101D60005B08240545EAC12141EA5051D2EBC0206D
:101D7000994125D407D1B0FA80F610FA06F162D065
:101D80000020203608E0B1FA81F6B140C6F1200209
:101D900020FA02F21143B0404FEAF474B4EB465417
:101DA00034F001064FEA74040AD8D6F50016760D11
:101DB00004F00044F04061FA06F25040F14048401F
:101DC000C00A40EA415021F0004128BF5FEA5005B7
:101DD00050F1000044EBD12135E0DB0A45EAC12196
:101DE000C90AB6F120050EDD42EA0242120CC5F125
:101DF000200603FA06F6EB4042EA06056D429841DA
:101E000061F100010DE062FA06F5F240554063FA17
:101E100006FC82EA0C02F3405A406D42904161EBAD
:101E2000030111F4801F05D1641E620502D06D000C
:101E30004041494121F48011430875F1004350F1BC
:101E4000000041EB045170BC70471CEB410F15D2F0
:101E500023F0004352EA43060BD04FEA4C0CBCEB94
:101E6000410F04D80C0D661E342EB7DDEBE7801A47
:101E7000994150EA410608BF0021E4E708BF1CEB86
:101E8000430F28BF6FF00001DDE70000704700003E
:101E900080B5AFF30080024A11001820ABBEFBE70B
:101EA000260002002DE9FC47040016D02078DFF858
:101EB0001C64C10713D5B06800F00C00042807D0DB
:101EC000B06800F00C00082842D1706841023FD58C
:101ED0003068810303D56068002800F03D812078D8
:101EE000DFF8F493810719D5B06810F00C0F07D014
:101EF000B06800F00C00082846D17068410243D455
:101F00003068810703D5E068012840F025813168F9
:101F1000206921F0F80141EAC00131602078DFF842
:101F2000BC83010765D56069DFF8B413002852D07F
:101F300001220A6000F0E4F90546D8F804008107A0
:101F400057D400F0DDF9401B0228F6D9032006E142
:101F50006168B170606858B100F0D2F90546306828
:101F60008103BCD400F0CCF9401B6528F7D3EDE722
:101F700000F0C6F9054630688103B0D500F0C0F91D
:101F8000401B6528F7D3E1E7E068B0B10121C9F84B
:101F9000001000F0B5F905463068810705D400F05F
:101FA000AFF9401B0228F7D9D0E73068216920F04B
:101FB000F80040EAC1003060B0E7C9F8000000F066
:101FC0009FF9054631688807A8D500F099F9401BAC
:101FD0000228F7D9BAE7086000F092F90546D8F868
:101FE0000400810705D500F08BF9401B0228F6D9C3
:101FF000ACE72078410750D5306C0025C1000AD4E9
:1020000000950125316C41F080513164306C00F055
:10201000805000900098DFF8CC72386840F48070EF
:1020200038603968C80510D4396841F48071396066
:1020300000F066F982463868C10506D400F060F900
:10204000A0EB0A000228F6D980E7A16888F8001002
:1020500041F28937A06868B100F052F98246D8F899
:102060000000810714D400F04BF9A0EB0A00B8423D
:10207000F5D36BE700F044F98246D8F800008107F9
:1020800006D500F03DF9A0EB0A00B842F5D35DE7B4
:102090001DB1306C20F080503064A06900285DD004
:1020A000B16801F00C0108293AD002282CD100F0C7
:1020B00058F805463068810105D500F021F9401B2C
:1020C0006528F7D342E77068DFF81C12E269084020
:1020D000216A1043626A0843E16A40EA8210A26AF8
:1020E000520840EA0160521E40EA0240706001203E
:1020F00000F038F80446306881012FD400F000F970
:10210000001B6528F7D321E700F02BF80446306860
:10211000810123D500F0F4F8001B6528F7D315E7FB
:10212000012819D07068E26900F48001914202BF71
:1021300000F03F01226A91420ED1626AC0F3881119
:10214000914202BF00F44031A26A914202BF00F006
:102150007060E16A884201D0012000E00020BDE803
:10216000F6870020C9F8600000F0CAB82DE9F041F8
:1021700004000F4651D05D4E306800F00F00B842A9
:1021800002D200F06EF848D12068504D810712D578
:10219000400703D5A96841F4E051A9602078010700
:1021A00003D5A86840F46040A860A968A06821F041
:1021B000F0010143A9602178C80726D5606801288D
:1021C00002D129688A0303E00228296802D18A0122
:1021D00002D422E08A0720D5A968890840EA810054
:1021E000A86000F08DF88046A868616800F00C00D7
:1021F000B0EB810F09D000F083F8A0EB080041F2AA
:1022000089318842F0D3032029E0306800F00F00C4
:10221000874204D200F025F801D001201FE0207889
:10222000410705D5AA68E06822F4E0520243AA609B
:102230002178080706D5A968206921F4604141EAA0
:10224000C001A96000F017F8AA682949204BC2F321
:102250000312895CC840186000F009F80020BDE84E
:10226000F0813770316801F00F01B94270472148A1
:10227000006800F04BB830B51F4C606800F00C00EF
:10228000042802D0082802D01DE01C4830BD226876
:1022900020680023410202F03F0204D52568174957
:1022A000C5F3881003E020680A49C0F38810A1FB39
:1022B0000001FFF7AFFC2168C1F30141491C49004F
:1022C000B0FBF1F030BD034830BD000000380240E3
:1022D0000C0000200024F400000047427038024047
:1022E000800E4742007000400080BCF0003C02407D
:1022F0003C2B0008080000200438024040787D0193
:1023000001484068704700BF0000002038B50D4DFF
:102310000D4B2A7804464FF47A711868B1FBF2F23B
:10232000B0FBF2F000F049F850B9102C08D20022AE
:1023300021464FF0FF3000F023F8AC60002032BDA2
:10234000012032BD000000200C0000200901020025
:1023500002D4244881547047234B02F00F021A44E0
:1023600002F8041C7047214B19684FF6FF02000267
:10237000114000F4E06008431D49084318607047AD
:1023800070B51A4B1C68C4F302230124C3F107057E
:10239000052D2EBF0F2504FA05F56D1E1E1D072EF7
:1023A00034BF0023DB1E2940994004FA03F3BDE843
:1023B00070405B1E1A401143C8E710B5401EB0F1D3
:1023C000807F01D3012010BD0A4C60600F214FF0C7
:1023D000FF30FFF7BBFF0021A16007202060002035
:1023E00010BD000000E400E018ED00E00CED00E09E
:1023F0000000FA0510E000E038B57A487A4C016830
:10240000490849000160A068401C1428A0602AD136
:102410000022A2600B21754800F024F928B90120A0
:10242000E0616FA1A01C0A7802700621704D284659
:1024300000F018F958B1A078532804BFE078742848
:1024400009D120796F2804BF6079702803D1002159
:10245000E161616261610721284600F003F910B96A
:102460000021E060E16131BD10B55F4C6148E16978
:102470000029C7BF002200210122002100F0F7F847
:10248000206A012804BFE069002808D1E068401CE8
:10249000E06041F28831884204BF0120E061564883
:1024A000016849084900016010BD38B5534C2068E7
:1024B00081061BD54C4D6068287028780A2802D107
:1024C000002068700AE06A78A91C88546878401C6B
:1024D0006870C0B20528A4BF00216970A81C00F074
:1024E0001EF92861206820F02000206031BDF8B579
:1024F00000F046F900F080F900F05CF9404D002250
:102500000721284600F084F83A4E00220221304686
:1025100000F07EF800F09AF900F0B1F900F0B4F89C
:10252000324C01220B21204600F072F801220C21CE
:10253000204600F06DF801220D21204600F068F8D9
:102540002B4F01220621384600F062F801220721B4
:10255000384600F05DF801220E212A4800F058F8B4
:1025600000220021304600F053F801220F212846B6
:1025700000F04EF801220021304600F078F81A4DA4
:102580000D2100F042F8012802D100212862696281
:1025900000F03AF8012804BFA869002801BF002113
:1025A000E961286A01280ED168692962401C6861C6
:1025B00000F0C7F800F0A7F800F026F80028FBD1DB
:1025C0000120A861686200F01FF80028D8D1686A6D
:1025D000012804BF0121E9610020A861D0E70000C3
:1025E000000000001000014090000020000C02409C
:1025F0000008024000040240100000400044004077
:1026000000000240001002400C21204600F02AB8D1
:1026100070B54B0001245B1C490004FA03F38C40A5
:10262000DB43E143012A0CD10268114001600168DB
:1026300019400160C5682C43C460C1680B40C36089
:1026400070BD72B902682243026005681D400560D2
:10265000866834438460826813408360436819400D
:10266000416070BD0069C84000F00100704701235F
:10267000012A08BF826902D02AB98269103103FA9F
:1026800001F11143816170473948016A41F4E06109
:102690000162016A41F4E0410162026822F0F00245
:1026A0000260016841F0A0010160426822F00C0262
:1026B000426040F28362C16821F0F001C1602D48A0
:1026C000416821F4005141600260416821F4805169
:1026D0004160816821F440518160416821F4C0610A
:1026E0004160C16821F00801C160416841F02C01DE
:1026F0004160416841F4005141601F48016841F068
:1027000040010160704710B51C4A04E013681C06C4
:10271000FCD55160401C01780029F7D110BD10B5DF
:1027200002460020002308E0A1F130040A2C03D265
:102730000A2404FB001030385B1CD15C0029F3D163
:1027400010BDF8B5044609A523462A4600210020FD
:1027500000F0B8F8461C304600F0D6F8074623468D
:102760002A46314600F0AEF83846F2BD2564000036
:10277000000002400844004004E100E00044004042
:1027800080B50B48016841F400710160026842F4B1
:1027900080620260016841F4807101600320FFF7EC
:1027A000E2FD0F20FFF7B2FD00F0D2F8002002BDDD
:1027B000003C02402448016841F0010101600268C8
:1027C00042F002020260016841F004010160026807
:1027D00042F008020260016841F0100101604269A4
:1027E00042F001024261016941F0010101610169A8
:1027F00041F400310161704700B5134891B00168A0
:1028000041F0010101603022002105A800F0BCF870
:1028100014220021684600F0B7F802210122059138
:1028200008921021002209910B9205A8FFF73AFBAC
:102830000F200090002101910291039104916846BC
:10284000FFF794FC11B000BD303802401B4801680E
:1028500021F0100101600021026822F06002026094
:1028600041621022826240F2E731C162C2681449BB
:1028700042F00102C2600A6842F0007218E04FF0B4
:102880008040016821F0100101600021026822F0FF
:102890006002026041621022826240F2E731C1624E
:1028A000C268074942F00102C2600A6842F08052E1
:1028B0000A60016841F001010160704700000140B9
:1028C00000E100E008B438B585B009AC00250494F7
:1028D000039500290EBF01950190491E02910095B4
:1028E00004AB01A9074878441A30FDF74BFC019965
:1028F00001B10D70002858BF039806B030BC5DF8D8
:1029000008FB00BFF7E9FFFF70B5C51DED08AFF389
:102910000080ED00072D98BF08250C4E346814B1D7
:102920002068A84208D200F039F800283060F4D1BD
:10293000AFF30080002070BD6119451B14BF0D600E
:1029400000213160AFF30080204670BDBC00002044
:1029500081B00020009000220A48416841F4804183
:102960004160416801F48041009100990092036840
:1029700043F080530360006800F08050009000989E
:1029800001B070474038024010B5044610460A4670
:102990000146204600F018F8204610BD0749086897
:1029A00008B1002070470648C008C000086005490B
:1029B000C908C900091A0160704700BFC0000020A3
:1029C000CF040020C806002062F30F2262F31F42EA
:1029D000401810F0030308D0C91A1FD3DB0748BF03
:1029E00000F8012D28BF20F8022D130030B4144642
:1029F0001546103928BF20E93C00FAD8490728BFFE
:102A000020E90C0048BF40F8042D890028BF20F8B9
:102A1000022D48BF00F8012D30BC7047C91818BFFF
:102A200000F8012DCB0728BF00F8012D7047F0B446
:102A30000246106895681318506803EB5004C007ED
:102A40001CD54D441AE013F8017B05F8017B491EA3
:102A5000F9D198B113F8011BC6F38106032E08BF04
:102A600013F8016B01EB06214942801C294405D073
:102A700011F8016B05F8016B401EF9D1A3420ED08D
:102A800013F8016B16F0030104BF13F8011BC91CF6
:102A900030090F28DBD113F8010B0F30D7E7F0BC5A
:102AA00002F10C007047000010B507497944183155
:102AB000064C7C44163404E00A68081D114488471B
:102AC0000146A142F8D110BD08000000140000002A
:102AD0005FFFFFFFBC0100006E000000000000204F
:102AE00000F00DF8002801D0FFF7DEFFAFF3008003
:102AF0000020AFF30080FFF7FAFC00F002F801209D
:102B0000704700F001B8000007463846FFF7C0F9EB
:102B1000FBE7FEE7FEE7FEE7FEE7FEE770477047EC
:102B2000704700F001B8000002494A68087882182E
:102B30004A6070470000002070470000000000005D
:102B4000000000000102030406070809014880474D
:102B500001480047392B00085D2B0008AFF30080C7
:102B6000AFF30080FFF7BCFFFFF7FEBFFFF7FEBF2C
:102B7000FFF7FEBFFFF7FEBFFFF7FEBFFFF7FEBF89
:102B8000FFF7FEBFFFF7FEBFFFF7FEBFFFF7FEBF79
:102B9000FFF7FEBFFFF7FEBFFFF7FEBFFFF7FEBF69
:102BA000FFF7FEBFFFF7FEBFFFF7FEBFFFF7FEBF59
:102BB000FFF7FEBFFFF7FEBFFFF7FEBFFFF7FEBF49
:102BC000FFF7FEBFFFF7FEBFFFF7FEBFFFF7FEBF39
:102BD000FFF7FEBFFFF7FEBFFFF7FEBFFFF7FEBF29
:102BE000FFF7FEBFFFF7FEBFFFF7FEBFFFF7FEBF19
:102BF000FFF7FEBFFFF7FEBFFFF7FEBFFFF7FEBF09
:102C0000FFF7FEBFFFF7FEBFFFF7FEBFFFF7FEBFF8
:102C1000FFF7FEBFFFF7FEBFFFF7FEBFFFF7FEBFE8
:102C2000FFF7FEBFFFF7FEBFFFF7FEBFFFF7FEBFD8
:102C3000FFF7FEBFFFF7FEBFFFF7FEBFFFF7FEBFC8
:102C4000FFF7FEBFFFF7FEBFFFF7FEBFFFF7FEBFB8
:102C5000FFF7FEBFFFF7FEBFFFF7FEBFFFF7FEBFA8
:102C6000FFF7FEBFFFF7FEBFFFF7FEBFFFF7FEBF98
:102C7000FFF7FEBFFFF7FEBFFFF7FEBFFFF7FEBF88
:102C8000FFF7FEBFFFF7FEBFFFF7FEBFFFF7FEBF78
:102C900043010001221008F0050724F4002A150062
:102CA000080452FF01E38A1314200400008A140070
:102CB000084C1148F31620000120025D1200082C78
:072CC000434B123CF1270118
:0400000508002B5D67
:00000001FF
